:100000000C9434000C943E000C943E000C943E0082
:100010000C943E000C943E000C943E000C943E0068
:100020000C943E000C943E000C943E000C943E0058
:100030000C943E000C943E000C943E000C943E0048
:100040000C943E000C943E000C943E000C943E0038
:100050000C943E000C943E000C943E000C943E0028
:100060000C943E000C943E0011241FBECFEFD8E04C
:10007000DEBFCDBF0E9452000C9457000C940000CC
:10008000259A08954AEF0E944B002D9A4AEF0E944C
:100090004B002D980895FBE0E8EB3197F1F74150C4
:1000A000D1F708950E9440000E944200FDCFF894CD
:0200B000FFCF80
:040000030000008079
:00000001FF
